:1000000052C100006EC100006CC100006AC1000056
:1000100068C1000066C1000064C1000062C1000048
:1000200060C100005EC100005CC100005AC1000058
:1000300058C1000056C1000031C2000052C100008A
:1000400050C100004EC10000BAC100004AC100000A
:1000500048C1000046C1000044C1000042C1000088
:1000600040C100003EC100000C9453010C9471018A
:100070000C9471010C9471010C9471010C94710138
:100080000C9471010C9471010C9471010C94710128
:100090000C9471010C9471010C9471010C94710118
:1000A0000C944E020C9471010C9471010C9471012A
:1000B0000C94DF010C9471010C9471010C9471018A
:1000C0000C9471010C9471010C9471010C947101E8
:1000D000A80FBC0FC60FD20FFD0FDC0FE80FF30FF8
:1000E0000000000000000000434F4E534F4C4500FD
:1000F00000008112920792075813C813900703104B
:10010000F612950F00386F12350100000000000054
:10011000004E554C4C444556000000920792079201
:1001200007920792079007920792079007000090A6
:10013000070002000000000000004E414D455350F2
:1001400041434500BB0D700F900790079007900743
:1001500090079007900700009007006E616D696E30
:100160006974202864657669636573293A0D0A000D
:100170004552524F522047455453544B2025730A41
:10018000006E616D6573706163653A2064657669C0
:100190006365206E616D6520257320746F6F206C20
:1001A0006F6E670D0A006E616D6573706163653A0D
:1001B0002063616E6E6F74206D6F756E74202564A0
:1001C0000D0A000A0A416C6C20757365722070720A
:1001D0006F636573736573206861766520636F6D07
:1001E000706C657465642E0A0A000A57656C636F4B
:1001F0006D6520746F2058696E75210A0A0D0958C3
:10020000696E75204F5320436F7079726967687407
:100210002028632920323031322C20323031350A07
:100220000D09446F75676C617320452E20436F6D17
:10023000657220616E64204352432050726573736F
:100240002C20496E632E0A0A0D0958696E75204FDD
:100250005320666F72204156522061746D6567614C
:10026000333238702076302E312028632920323006
:1002700032300A0D0952616661656C2049676E6112
:1002800063696F205A7572697461203C726166619E
:100290004066692E756E636F6D612E6564752E61A3
:1002A000723E0A0A0D0011241FBECFEFD8E0DEBF58
:1002B000CDBF11E0A0E0B1E0E8E8FFE202C00590A8
:1002C0000D92A039B107D9F724E0A0E9B1E001C04F
:1002D0001D92AA37B207E1F70C947D060E946714BD
:1002E0001DC38ECEFF93EF93FC0100820FB6F894EE
:1002F00004A21182228233824482558266827782EE
:1003000080869186A286B386C486D586E686F786E1
:10031000008B118B228B338B448B558B668B778BA9
:10032000808F918FA28FB38FC48FD58F0F90068E41
:100330000F90078E0DB600A20EB601A2FB0100A021
:100340000DBE01A00EBE078C0F92068C0F92D58DAC
:10035000C48DB38DA28D918D808D778966895589E5
:1003600044893389228911890089F784E684D584F8
:10037000C484B384A284918480847780668055800D
:10038000448033802280118004A00FBE0080EF9152
:10039000FF910895E0910001F0910101158287E637
:1003A000848386E0828388E981830895E091000157
:1003B000F0910101908195FFFDCF868308951F92F2
:1003C0000F920FB60F9211242F933F934F935F9389
:1003D0006F937F938F939F93AF93BF93EF93FF930D
:1003E0004091C6004093960120E030E061E070E06B
:1003F00080E090E00E946F12FF91EF91BF91AF916A
:100400009F918F917F916F915F914F913F912F912C
:100410000F900FBE0F901F901895A4E0B0E0E3E19D
:10042000F2E00C94AF1419821A821B821C8219828A
:100430001A821B821C8209811A812B813C8106173A
:1004400017072807390770F4000009811A812B81EA
:100450003C810F5F1F4F2F4F3F4F09831A832B8320
:100460003C83E9CF2496E4E00C94CB1480E284B979
:100470002D9A60E47DE083E090E0CFDF2D9860E48A
:100480007DE083E090E0C9CF1092BF011092C001DF
:100490001092C1011092C20181E008951F920F9243
:1004A0000FB60F9211242F933F934F935F936F9347
:1004B0007F938F939F93AF93BF93EF93FF9380911D
:1004C000C9019091CA01A091CB01B091CC010196D4
:1004D000A11DB11D8093C9019093CA01A093CB01C6
:1004E000B093CC01883E9340A105B105D8F080912E
:1004F000CD019091CE01A091CF01B091D001019694
:10050000A11DB11D8093CD019093CE01A093CF0189
:10051000B093D0011092C9011092CA011092CB0180
:100520001092CC018091C3019091C40126E0289FD4
:10053000F001299FF00D1124E559FC4F8281938130
:100540008430910584F4289FF001299FF00D112437
:10055000E559FC4F80819181019791838083892B9C
:1005600011F40E94C10C8091C5019091C601A09127
:10057000C701B091C8010197A109B10949F0809361
:10058000C5019093C601A093C701B093C8010DC0E7
:1005900081E090E0A0E0B0E08093C5019093C601B7
:1005A000A093C701B093C80113D7FF91EF91BF91FA
:1005B000AF919F918F917F916F915F914F913F91FB
:1005C0002F910F900FBE0F901F901895F3D5909319
:1005D000C4018093C30181E090E0A0E0B0E080938B
:1005E000C5019093C601A093C701B093C8011092B2
:1005F000CD011092CE011092CF011092D001109235
:10060000C9011092CA011092CB011092CC0185B59C
:10061000836085BD84B5826084BD89EF87BDEEE6C9
:10062000F0E08081826080830895CF92DF92EF9224
:10063000FF92CF93DF936B017C016AD4D82F83E0C4
:10064000C816D104E104F10420F08D2F64D4CFEF5B
:1006500011C029E22C9DC0012D9D900D11248052C6
:100660009F4FFC0176960590F491E02D0995C82FD7
:100670008D2F51D48C2FDF91CF91FF90EF90DF9091
:10068000CF900895A6E0B0E0E8E4F3E00C94A11464
:100690002B8D29838C8CED8CFE8C09A13AA13E8395
:1006A00037D4982E40E4E416F1041CF470E4E72EED
:1006B000F12C83E0E80EF11C9CEFE92227010F2CBE
:1006C000000C66087708C301B20169D21C010196CB
:1006D00079F480E791E00E94F10C892D1CD4FFEFA2
:1006E000FA832FEF2B833FEF3C834FEF4D8309C1FC
:1006F000309190012091910180919201909193010C
:10070000A12CB12C1BE5632F722F24E030E040E0D8
:1007100050E00E947F146B017C016A83DB82EC82D3
:10072000FD82169FF001179FF00D1124EB52FE4F32
:1007300080819181B701A6014F5F5F4F6F4F7F4F5F
:10074000892B79F440939001509391016093920129
:10075000709393018FEFC816D806E806F806A1F447
:10076000B8CF342F252FCB01EFEFAE1ABE0AF4E03D
:10077000AF16B10441F640939001509391016093FC
:10078000920190939301A5CF2F8D38A112161306D5
:100790000CF09FCF8091410390914203A0914303BD
:1007A000B09144030196A11DB11D80934103909324
:1007B0004203A0934303B093440385E090E0918308
:1007C00080833383228331AE20AE42AE53AE64AE1B
:1007D00075AEDF01AB5BBF4F1C92A02FBE818F01B6
:1007E00080E090E02D91F801E80FF91F26AF222359
:1007F00021F0019687309105A9F72BE52C9DC001CA
:100800002D9D900D1124FC01EB52FE4F5F01EA5B20
:10081000FF4F8FEF9FEF91838083B8D1F501E85BA5
:10082000FF4F608371838283938338961082319661
:1008300011821082329611821082329611821082B9
:100840008AEAF10180838BA19CA1F50193A782A77D
:1008500020E030E0F801E20FF31F14822F5F3F4FDA
:1008600026323105B9F72BE52C9DF0012D9DF00DB9
:100870001124EB52FE4F298124AB85AA26A387A21F
:1008800020E820A7DE01959620E030E02817390700
:1008900064F44D915D91F901EE0FFF1FE00FF11F20
:1008A00055A744A72F5F3F4FF1CFFC017696EE0F7F
:1008B000FF1F4BE54C9D90014D9D300D1124E20F23
:1008C000F31FEB52FE4F11821082F901EB52FE4FE3
:1008D000848F958F2F5F3D4F228F338F86E79CE06B
:1008E000D10111978C9311979C93119739813C9367
:1008F00011978C9245E0241A310824A235A2892D43
:100900000AD36A817B818C819D812696E2E10C94D9
:10091000BD1461E070E080E090E0089537D104C339
:10092000A0E0B0E0E6E9F4E00C94A714EC016A0161
:100930007B01EED2C114D104E104F10409F447C0F3
:100940002091670330916803C217D30708F43FC0B2
:100950002091690330916A032C173D07C0F197E09D
:10096000C90ED11CE11CF11C98EFC922A601DD0CB7
:10097000660B770BE0916103F0916203A1E6B3E0AF
:10098000309741F0EC17FD0740F5DF010190F08151
:10099000E02DF6CF93E0A136B907D1F11296CD90B4
:1009A000DD90ED90FC9015978D010B2E000C220B25
:1009B000330B0C0D1D1D2E1D3F1D6E010D2E000C49
:1009C000EE08FF08C016D106E206F30618F4A3D21B
:1009D0008FEF82C0309741F41EC093E0A136B90773
:1009E000E9F600E010E098016E010D2E000CEE0813
:1009F000FF08C40ED51EE61EF71E4F010F2E000C79
:100A0000AA08BB088C149D04AE04BF0420F4DFCFF9
:100A100000E010E09801C0906303D0906403E09080
:100A20006503F0906603C40ED51EE61EF71EC09245
:100A30006303D0926403E0926503F09266036E0153
:100A40000D2E000CEE08FF08C016D106E206F306D4
:100A500091F412960D911D912D913C911597400F97
:100A6000511F621F731F12964D935D936D937C937C
:100A70001597ED0108C0F983E8834A835B836C8393
:100A80007D83CD93DC934A815B816C817D818E0176
:100A90000D2E000C220B330B040F151F261F371FC2
:100AA0006F010F2E000CEE08FF080C151D052E051A
:100AB0003F0581F40281138124813581400F511F4C
:100AC000621F731F4A835B836C837D832081318126
:100AD0003983288320D281E0CDB7DEB7ECE00C94D7
:100AE000C31426E0AC01249FC001259F900D112462
:100AF000FC01E559FC4F42815381443051051CF5FE
:100B0000BA01052E000C880B990B249FF001259F3C
:100B1000F00D1124E559FC4FA281B3814481558128
:100B2000249FF001259FF00D1124E559FC4FB3835C
:100B3000A2832A9FF0012B9FF00D1124E559FC4F51
:100B40005583448308956FEF7FEFCB01089546E00E
:100B5000469FF001479FF00D1124E559FC4FA281FB
:100B6000B38124813581429FF001439FF00D112410
:100B7000E559FC4FB383A2834A9FF0014B9FF00DD0
:100B80001124E559FC4F3583248308956091D101E8
:100B90007091D2018091D3019091D4010895A0E089
:100BA000B0E0E5EDF5E00C94AB146B017C01B0D145
:100BB000C114D104E104F10449F197E0C90ED11C3C
:100BC000E11CF11C98EFC9220D2C000CEE08FF0867
:100BD000E0916103F0916203A0E0B0E0C0E0D0E0FA
:100BE00021E633E0309781F0428153816481758141
:100BF0004C155D056E057F0510F0D901EF019F01D1
:100C00000190F081E02DEECF209721F484D18FEF79
:100C10009FEF41C00A811B812C813D81C016D10606
:100C2000E206F30629F4288139812D933C9311C003
:100C30000C191D092E093F090A831B832C833D8350
:100C4000AE01DD0F660B770B040F151F261F371F34
:100C5000E8014091630350916403609165037091D2
:100C600066034C195D096E097F0940936303509335
:100C7000640360936503709366034DD1D701C60189
:100C80000497A109B109AE01DD0F660B770B840F44
:100C9000951FA61FB71FCDB7DEB7E8E00C94C714A9
:100CA000CF92DF92EF92FF92CF93DF936B017C01A3
:100CB0002FD1D82F83E0C816D104E104F10420F02D
:100CC0008D2F29D1CFEF11C029E22C9DC0012D9D80
:100CD000900D112480529F4FFC0172960590F49163
:100CE000E02D0995C82F8D2F16D18C2FDF91CF9134
:100CF000FF90EF90DF90CF900895C7D284E091E00D
:100D00009F938F93F1D18AEE91E06BD61CD2109213
:100D10004103109242031092430310924403109235
:100D2000CD031092CE031092CF031092D003E5EDC5
:100D3000F1E00F900F901182108216AE11AE10AE3E
:100D400013821282E55AFF4F83E0E134F80799F7E6
:100D5000C5E4D3E001E613E0188219821A821B82EF
:100D60001C8228D29E838D8327960C171D07A1F71E
:100D70008BDB20D29093CC038093CB0360E070E0B8
:100D8000CB018EDF61E070E080E090E089DF62E01F
:100D900070E080E090E084DF19DCE0916103F09185
:100DA000620380E090E0DC01309761F04281538182
:100DB00064817581840F951FA61FB71F0190F08174
:100DC000E02DF2CFBF93AF939F938F9382E191E099
:100DD0009F938F9389D11F921F921F921F9288E237
:100DE00091E09F938F931F928AE08F931F9280E4EC
:100DF0008F931F921F9246DC2BE5269FF001279FC1
:100E0000F00D1124EB52FE4F81E090E0918380833E
:100E100084D01F921F921F921F928EE291E09F93A7
:100E20008F931F9284E18F9381E08F9388EB8F9350
:100E300087E694E19F938F9325DC9BD38DB79EB774
:100E40004E960FB6F8949EBF0FBE8DBFFFCF1F9377
:100E5000CF93DF93FA0134973B9708F054C0643086
:100E600071058105910508F04EC03BE5369FF00104
:100E7000379FF00D1124EB52FE4F0190F081E02DD1
:100E8000EF2B09F440C036E0349FF001359FF00DA0
:100E90001124E559FC4F42815381022E000C330B83
:100EA000C6E016E0C49FF001C59FF00D1124E5597E
:100EB000FC4FA081B181A217B30718F04281538182
:100EC000F0CFC481D581169FD001179FB00D11249A
:100ED000A559BC4F13965C934E9312971596DC93CD
:100EE000CE9314972D933C931C9FD0011D9FB00D62
:100EF0001124A559BC4F13967C936E93129775835A
:100F0000648381E001C08FEFDF91CF911F9108953D
:100F10008FB7F89408958FBF089578940895FFCF00
:100F20008FEF089581E00895AF92BF92CF92DF9244
:100F3000EF92FF921F93CF93DF936B017C01E8DF69
:100F4000182F84E0C816D104E104F10488F48BE57D
:100F50008C9DF0018D9DF00D1124EB52FE4F808190
:100F60009181892B29F0C114D104E104F10421F409
:100F7000812FD1DF8FEF9DC080914103909142037B
:100F8000A0914303B09144030197A109B109809353
:100F9000410390934203A0934303B0934403029709
:100FA000A105B1050CF419D58BE58C9D50018D9DE3
:100FB000B00C1124F501E35EFD4F608171818281E7
:100FC0009381A701960171D3C0E0D0E0FE01EA0D44
:100FD000FB1DEA5DFD4F60817181072E000C880BBF
:100FE000990B23DB2296C630D10581F78BE58C9DCA
:100FF000E0018D9DD00D1124CB52DE4F4AAD5BAD8B
:101000006CAD7DAD495F5F4F6F4F7F4F487F052EC1
:10101000000C660B770B88AD99AD092E000CAA0B5E
:10102000BB0B0496A11DB11D841B950BA60BB70B22
:1010300077DC888199818430910581F030F48130AA
:10104000910549F0029729F127C08630910551F0AA
:10105000079721F021C019821882BAD1C701B601C1
:10106000F7D31AC0CA5BDF4F8881998127E0289F98
:10107000F001299FF00D1124EB5BFC4F81819281DF
:10108000A381B4810196A11DB11D81839283A383A5
:10109000B483C701B6015BDD8BE58C9DF0018D9DAE
:1010A000F00D1124EB52FE4F11821082812F33DF9D
:1010B00081E0DF91CF911F91FF90EF90DF90CF9073
:1010C000BF90AF900895CF93DF93C82F21DFD82F23
:1010D000CA3011F48DE06AD98C2F68D98D2F1BDFAF
:1010E00081E0DF91CF910895A1E5B0E0EAE7F8E073
:1010F0000C94AD148E01065A1F4FF801E190F19047
:101100008F0121E530E040E050E060E070E0CE018A
:1011100001960E9412159801A70160E570E0CE01CA
:1011200001960E9419158E010F5F1F4FF8018191E2
:101130008F01882311F0C7DFF9CF81E0CF5ADF4F4D
:10114000E6E00C94C9140F931F93CF93DF938AE7C3
:1011500094E0A0E8BB270196A11DB11DEC0190937E
:101160006803809367032FEF38E030936A0320937E
:101170006903E1E6F3E09183808319821882092EE6
:10118000000CAA0BBB0B4FEF58E060E070E08A0147
:101190009B01081B190B2A0B3B0B0A831B832C8317
:1011A0003D830283138324833583DF91CF911F9185
:1011B0000F910895209102013091030120313105F2
:1011C00044F5C90102969093030180930201A9019D
:1011D0004F5F5F4F66E0629FF001639FF00D112447
:1011E000E559FC4F538342838FEF9FEF95838483B0
:1011F00091838083649FF001659FF00D1124E55970
:10120000FC4F938382833583248311821082C9012A
:1012100008958FEF9FEF08958F929F92AF92BF92A4
:10122000EF92FF920F931F93CF93DF934B015C01DB
:101230008A0179016DDED82F83E088169104A1041C
:10124000B10420F08D2F67DECFEF13C029E2289D77
:10125000C001299D900D112480529F4FFC0174966E
:101260000590F491E02DA701B8010995C82F8D2FA5
:1012700052DE8C2FDF91CF911F910F91FF90EF9055
:10128000BF90AF909F908F900895F894EFD8EED8CC
:1012900081D83FCBCF93DF939A01245031092B3073
:1012A0003105E8F56430710581059105C0F52BE540
:1012B000269FF001279FF00D1124EB52FE4F208155
:1012C0003181232B61F14F5F5F4F26E0249FF001B6
:1012D000259FF00D1124E559FC4FC481D581269F2F
:1012E000D001279FB00D1124A559BC4F13965C93D4
:1012F0004E9312971596DC93CE9314972C9FD001A2
:101300002D9FB00D1124A559BC4F13967C936E935D
:10131000129775836483462F372F282F04C04FEF11
:101320003FEF2FEF9FEF642F732F822FDF91CF912D
:101330000895CF939C01245031092B303105F8F4E6
:10134000C6E0C89FF001C99FF00D1124E559FC4F7C
:10135000228133812430310594F4C3DBC69FF00130
:10136000C79FF00D1124E559FC4F2FEF3FEF358358
:10137000248333832283462F372F282F04C04FEF37
:101380003FEF2FEF9FEF642F732F822FCF910895A0
:101390006430710581059105C8F42BE5269FF001A5
:1013A000279FF00D1124EB52FE4F20813181232B1A
:1013B00069F022E030E0318320834091CB035091EB
:1013C000CC03228144DD04D081E008958FEF08959D
:1013D000CF92DF92EF92FF928091CD039091CE0356
:1013E000A091CF03B091D003181619061A061B0658
:1013F00024F481E08093D1036BC0C090D101D090E0
:10140000D201E090D301F090D4018BE58C9DF001E6
:101410008D9DF00D1124EB52FE4F8081918101973B
:1014200029F5228133814091CB035091CC0386E092
:10143000849FD001859FB00D1124A559BC4F1296F1
:101440006D917C911397869FD001879FB00D1124D9
:10145000A559BC4F8D919C9182179307C8F182E0EA
:1014600090E091838083C701B601F1DC8091CB03CA
:101470009091CC035EDF6093D1017093D201809391
:10148000D3019093D4012BE5269FD001279FB00D67
:101490001124FD01EB52FE4F41E050E051834083A7
:1014A00041E050E060E070E04093C5015093C60118
:1014B0006093C7017093C801BD0167527E4F2C9D98
:1014C000C0012D9D900D112487529E4F0E947201E4
:1014D000FF90EF90DF90CF90089561307105810506
:1014E000910531F06230710581059105F1F03FC041
:1014F0008091CD039091CE03A091CF03B091D00302
:10150000AC01BD014F5F5F4F6F4F7F4F4093CD03E5
:101510005093CE036093CF037093D003892B8A2B13
:101520008B2B19F51092D10320C08091CD0390919F
:10153000CE03A091CF03B091D003181619061A0656
:101540001B06ACF40197A109B1098093CD039093D8
:10155000CE03A093CF03B093D003892B8A2B8B2B80
:1015600021F48091D103811133DF81E008958FEF61
:101570000895CF92DF92EF92FF921F93CF93DF9364
:101580006B017C01C5DC182F84E0C816D104E1048E
:10159000F10470F48BE58C9DF0018D9DF00D11240C
:1015A000EB52FE4F80819181009711F0059729F051
:1015B000812FB1DC8FEF9FEF09C0D281C381C701BA
:1015C000B601E6DE812FA7DC8D2F9C2FDF91CF9116
:1015D0001F91FF90EF90DF90CF900895CF93DF930E
:1015E000EC0196DCC430D10558F497E09C9FF001E3
:1015F0009D9FF00D1124EB5BFC4F9081911103C076
:101600008ADC8FEF03C0C18186DC8C2FDF91CF9104
:101610000895CF92DF92EF92FF92CF93DF936B0109
:101620007C0176DCF7FE04C076DCCFEFDFEF35C05F
:10163000C0919401D091950140E050E097E09E0167
:101640002F5F3F4F2430310514F020E030E09C9FA5
:10165000F0019D9FF00D1124EB5BFC4F6081611147
:1016600010C0309395012093940191E09083CF3F77
:101670009FEFD907C9F2C182D282E382F4824BDCA8
:101680000CC04F5F5F4F4430510511F0E901D7CFD7
:101690003093950120939401C7CFCE01DF91CF9174
:1016A000FF90EF90DF90CF9008958F929F92AF922E
:1016B000BF92CF92DF92EF92FF92CF934B015C01EA
:1016C00069017A0125DCC82F84E088169104A10401
:1016D000B10490F48BE5889DF001899DF00D1124F3
:1016E000EB52FE4F80819181009731F0DF01A05BCA
:1016F000BF4F2C91222321F08C2F0DDC8FEF16C0D1
:10170000E45BFF4FC082D182E282F38221E02C931E
:101710008330910529F0079731F4C501B40198D0C1
:10172000C501B40135DE8C2FF6DB81E0CF91FF904F
:10173000EF90DF90CF90BF90AF909F908F900895E3
:101740000F931F93CF938C01E3DBC82F0430110557
:1017500058F487E0809FF001819FF00D1124EB5B2E
:10176000FC4F8081811104C08C2FD5DB8FEF17C017
:1017700081819281A381B481AC01BD014F5F5F4F34
:101780006F4F7F4F4183528363837483B7FF04C0DD
:1017900085819681CEDDFCDD8C2FBDDB81E0CF9194
:1017A0001F910F910895A0E0B0E0E9EDFBE00C94EB
:1017B000AA148C016A017B01ABDBB82E0430110541
:1017C00068F4F7FC0BC087E0809FE001819FD00D9B
:1017D0001124CB5BDC4F8881811104C08B2D9BDBF6
:1017E0008FEF31C061E070E080E090E076DE8E0146
:1017F0000F5F1F4F2596C114D104E104F104D9F005
:10180000F80180819181A281B381AC01BD014F5F5C
:101810005F4F6F4F7F4F4083518362837383B7FF66
:1018200004C08881998185DDB3DDF1E0CF1AD1084C
:10183000E108F108E0CF62E070E080E090E04DDE8A
:101840008B2D69DB81E0CDB7DEB7E9E00C94C614DF
:10185000CF92DF92EF92FF92CF936B017C0158DB26
:10186000C82F84E0C816D104E104F10488F48BE5A4
:101870008C9DF0018D9DF00D1124EB52FE4F808167
:101880009181009729F08430910531F0079721F07C
:101890008C2F41DB8FEF24C026E02C9DD0012D9DA5
:1018A000B00D1124A559BC4F12968D919C911397A0
:1018B000843091057CF4289FF001299FF00D1124BC
:1018C000E559FC4F208131818D919C91820F931FAE
:1018D00091838083C701B6013AD98C2F1CDB81E04C
:1018E000CF91FF90EF90DF90CF9008954FD91CCB10
:1018F0001F93CF93DF93EC010BDB182FC430D1057E
:1019000058F487E08C9FF0018D9FF00D1124EB5B64
:10191000FC4F8081811104C0812FFDDA8FEF2DC033
:1019200081819281A381B4810197A109B109818349
:101930009283A383B483B7FF1DC06091D1017091DE
:10194000D2018091D3019091D4012BE5269FD00143
:10195000279FB00D1124AB52BE4F26E030E0119608
:101960003C932E93AA5BBF4FCD93DC934581568168
:1019700091DC2EDD812FCFDA81E0DF91CF911F91B5
:101980000895CF9361E070E080E090E0A6DDC6E0CE
:101990008091C3019091C401C89FF001C99FF00DCF
:1019A0001124E559FC4F228133812430310574F430
:1019B000C29FF001C39FF00D1124E559FC4F208117
:1019C0003181232B19F4B5DCE3DCE2CF62E070E077
:1019D00080E090E082DDCF91089583EC91E001D02A
:1019E0009ECA0F931F93CF93DF938C010E94FA142A
:1019F000E801080F191FC017D10731F0FE01219629
:101A000085910E94D601F7CFDF91CF911F910F9161
:101A100008950F931F9300E010E098010417150735
:101A20002607370764F4DC01ED91CD010F5F1F4FEE
:101A30002F4F3F4FE111F2CFB801C90104C06FEF42
:101A40007FEF8FEF9FEF1F910F910895A6E0B0E019
:101A5000EBE2FDE076C7182F9C831B0169017A0138
:101A600057DA082F40E150E060E070E0812F9C8160
:101A7000D0DF4B015C0141E050E060E070E0C1016B
:101A8000C8DF2B013C012FEF82169206A206B20698
:101A900049F16F3F7F4F8F4F9F4F21F153E0C516A4
:101AA000D104E104F104F0F48091D2039091D303C6
:101AB000A091D403B091D50384309105A105B1055F
:101AC0008CF419831C811A8325E1289FA001299F8A
:101AD000500D11245E834D8320E030E040E050E063
:101AE000BA0104C0802F17DA8FEF42C0481559059C
:101AF0006A057B059CF4E981FA811191FA83E983F7
:101B0000ED81FE81E20FF31FEA52FC4F10834F5F1D
:101B10005F4F6F4F7F4F2F5F3F4FE8CF1414150477
:101B2000160417045CF4F101208135E1389FF001BF
:101B3000399FF00D1124EA52FC4F208B25E1289F9C
:101B4000F001299FF00D1124EA52FC4FC18AD28A7C
:101B5000E38AF48A0196A11DB11D8093D20390936C
:101B6000D303A093D403B093D503802FD4D981E0BD
:101B70002696E2E102C7A0E2B0E0E0ECFDE0E3C6B9
:101B800086E0E9E3F1E0DE015B9601900D928A9533
:101B9000E1F71092D2031092D3031092D403109263
:101BA000D5038BE591E01DDF80EEE82E80E0F82E76
:101BB00088E090E09C01205E3040690193E3892E2B
:101BC00091E0992EDE015B968E010F5F1F4F412C35
:101BD000512C320158018D91F8018193882339F0FD
:101BE0003FEF431A530A630A730A8F01F4CFB60119
:101BF0006E0D7F1D60527F4F4AE050E0CE0141964E
:101C000002D7FE017196BFEF4B1A5B0A6B0A7B0A83
:101C100020E1421651046104710464F481919FEB48
:101C2000980F9A3108F4805ED8018D938D0181114F
:101C3000EACF09C030E1431651046104710419F080
:101C400081E891E016C0BF92AF929F928F924CDADA
:101C5000F701259135914591559167E271E0C501F4
:101C6000F5DE0F900F900F900F908F3F19F486EADA
:101C700091E0B7DEF9E2EF0EF11C2BE5E21621E070
:101C8000F20609F09FCF2FEF3FEFA90167E271E065
:101C900089E391E0DBDE81E0A096E0E170C64F923F
:101CA0005F926F927F928F929F92AF92BF92DF92DC
:101CB000EF92FF920F931F93CF93DF9300D000D04A
:101CC0001F92CDB7DEB7E090D203F090D30300911E
:101CD000D4031091D503E982FA820B831C8326ED8D
:101CE00033E0812C912C5401E980FA800B811C8116
:101CF0008E149F04A006B106ACF47C01F901412CBE
:101D0000512C3201D70141914423C1F00FEFE01A69
:101D1000F00A5C9145130AC01FEF411A510A610A8B
:101D2000710AF0CF6FEF7FEFCB0165C00FEF801A24
:101D3000900AA00AB00A2B5E3F4FD6CF7D83D62EE5
:101D400040E150E060E070E064DE698385E1889DF9
:101D50008001899D100D11240A511C4F40E150E073
:101D600060E070E0C80155DEA9812A2FAA0F330B6D
:101D7000440B550B24193509460957092B013C0121
:101D8000B1E04B1A510861087108420E531E641EDF
:101D9000751EE1E14E165104610471041CF62B011D
:101DA0003C01D801ED2DFD8181E0481A5108610800
:101DB000710814141504160417041CF48D918193F2
:101DC000F3CF12161306140615064CF4D7018D91A5
:101DD0007D0181932150310941095109F2CF85E1FB
:101DE000889DF001899DF00D1124EA52FC4F618914
:101DF0007289838994890F900F900F900F900F90A4
:101E0000DF91CF911F910F91FF90EF90DF90BF90E6
:101E1000AF909F908F907F906F905F904F900895BC
:101E2000CF92DF92EF92FF92FB01C12CD12C760171
:101E3000C216D306E406F50664F46191DC016D93E5
:101E4000CD01662341F0BFEFCB1ADB0AEB0AFB0A98
:101E5000EFCF8FEF01C081E0FF90EF90DF90CF9048
:101E60000895A0E1B0E0E6E3FFE071C58B01490110
:101E70005A0120E130E040E050E0BC01CE01019683
:101E8000CFDF8F3FF1F0C12CD12C76010DC020E1C6
:101E900030E040E050E0B801CE010196C1DF8FEFA5
:101EA000C81AD80AE80AF80A8091D2039091D3039D
:101EB000A091D403B091D503C816D906EA06FB0653
:101EC00014F08FEF0AC0B801CE010196E8DE681564
:101ED00079058A059B05D9F2862F6096ECE053C5FB
:101EE000A0E1B0E0E5E7FFE03AC5FC01CB018A01E3
:101EF0002591359145915591BE016F5F7F4FB1DFBF
:101F0000682F880F770B880B990B6F3F2FEF7207A5
:101F10008207920731F09801AE014F5F5F4F7CD985
:101F200001C08FEF6096E4E036C50F931F93CF9307
:101F3000DF930496FC0185919591A591B591FA01E5
:101F40003397E830F10508F058C0E859FF4FF3C463
:101F500020E5289F8001299F100D1124E801C65D0E
:101F6000DB4F8CA19DA1C4DCEA81FB8110818CA197
:101F70009DA1E6DB812F42C020E5289FF001299F2B
:101F8000F00D1124E65DFB4F82E509C020E5289F96
:101F9000F001299FF00D1124E65DFB4F83E481AF32
:101FA00081E02CC020E5289FF001299FF00D11242D
:101FB000E65DFB4F8BE4F3CF20E5289FF001299FDE
:101FC000F00D1124E65DFB4F84A195A107DB16C03F
:101FD00020E5289FF001299FF00D1124E65DFB4FBD
:101FE00081E082AF0BC020E5289FF001299FF00D12
:101FF0001124E65DFB4F12AED3CF8FEFDF91CF916F
:102000001F910F910895A0E0B0E0E8E0F0E1A3C4D3
:102010000496FC01C590D590E590F59080E58C9DE7
:10202000E0018D9DD00D11248E01065D1B4FD8015E
:1020300094968D919C9195975BDCD801ED91FC91E4
:1020400011979F012F5F3F4F11963C932E938081F4
:10205000AE01425B5B4F2417350720F0C25DDB4FBA
:10206000CD93DC9390E59C9DF0019D9DF00D112496
:10207000E65DFB4F91AD933461F4DF01AE5BBF4F82
:102080009C91992331F0ED5BFF4F9081891301C042
:102090008EEFCDB7DEB7E8E07AC4CF93C82F8A3091
:1020A00011F08D3059F4FB0185AD882339F08DE0B6
:1020B00090E00E94D6018AE090E015C080EE8C0F7F
:1020C0008F3570F0FB0184AD882351F08EE590E0F0
:1020D0000E94D60180E48C0F082E000C990B03C0DF
:1020E0008C2FCC0F990B0E94D601CF910895EF92BF
:1020F000FF921F93CF93DF93EC01142F8CA19DA12E
:102100006DDA082E000C990BAA0BBB0BB7FF03C0AE
:1021100080E090E0DC0129AD2235C1F48097A10573
:10212000B1050CF058C1EA81FB81CF0101969B8378
:102130008A8310832A813B81CE0184962817390730
:1021400008F423C180979B838A831FC11D3019F433
:102150003EAD31111AE0FE01E55BFF4F10822B34DA
:10216000F1F48097A105B1050CF0E6C0EA81FB818E
:10217000CF0101969B838A8310832A813B81CE0104
:1021800084962817390718F080979B838A838AAD35
:10219000882309F4FAC0BE01812F7FDFF6C0FE015B
:1021A000EB5BFF4F80819E012A5B3F4F7901181343
:1021B00020C0319780818823E1F08A819B81F901D9
:1021C00020813181821B930B9E012C5F3F4F821730
:1021D000930708F480969B838A83F701108211820B
:1021E000128213828DE090E00E94D6018AE090E096
:1021F000A9C0FE01E05CFF4F8081181721F03196E5
:102200008081181352C08FAD882309F44EC0F701A6
:1022100080819181A281B381181619061A061B06C6
:102220000CF0D9C00197A109B10980839183A283E1
:10223000B3838A819B819C0121503109AE014C5F9F
:102240005F4F2417350718F03B832A8303C04F964E
:102250009B838A838AAD882309F4BDC0EA81FB8110
:10226000808180528F3590F08CAD882379F088E0A2
:1022700090E00E94D6018BAD882341F080E290E08F
:102280000E94D60188E090E00E94D60188E090E0AC
:102290000E94D6018BAD882309F49DC080E290E0B6
:1022A0000E94D60188E090E04DC01A3011F01D3038
:1022B00049F58AAD882319F0BE01812FEEDEEA814F
:1022C000FB81CF0101969B838A8310832A813B8106
:1022D000CE0184962817390718F080979B838A834C
:1022E000F70140815181628173814F5F5F4F6F4F72
:1022F0007F4F8CA19DA157DAF701108211821282C3
:10230000138269C08CA19DA169D9082E000C990B7C
:10231000AA0BBB0BB7FF03C080E090E0DC01F70124
:102320004081518162817381840F951FA61FB71F61
:102330004F97A105B1054CF0C15BDF4F8881082E96
:10234000000C990B0E94D60146C0FE01ED5BFF4FC9
:1023500090818AAD19131DC0319790819923C9F0DE
:10236000882319F0BE01812F98DEF70180819181C9
:10237000A281B381892B8A2B8B2B69F5EA81FB81A2
:10238000CF0101969B838A8310838CA19DA1D8D90C
:1023900022C0882319F0BE01812F7FDEF7018081E2
:1023A0009181A281B3810196A11DB11D808391838A
:1023B000A283B383EA81FB81CF0101969B838A8349
:1023C00010832A813B81CE0184962817390718F0A3
:1023D00080979B838A83DF91CF911F91FF90EF902D
:1023E0000895CF92DF92EF92FF92CF93DF93FC019B
:1023F000E55BFF4F208121116BC0EC012CA93DA9A9
:102400008EA99FA92817390761F02CA93DA98EA98B
:102410009FA92817390759F4C12CD12C7601C394F0
:102420001FC08AA99BA9DAD888307CF351C0EEA1DD
:10243000FFA1CF0101969FA38EA38081082E000CDF
:10244000990B0E94D6012CA93DA9CE01C996281747
:10245000390718F001979DAB8CABC12CD12C7601BC
:102460008AA99BA9BBD828E030E0281B310987FD49
:102470003395CA94CD28CE28CF2801F5121613061D
:10248000ECF4EEA1FFA1CF0101969FA38EA3808162
:10249000082E000C990B0E94D6012EA13FA1CE015F
:1024A000C2962817390718F008979FA38EA341E01A
:1024B00050E060E070E08AA99BA975D92CA93DA9DC
:1024C0008EA99FA92817390719F48AA99BA986D82C
:1024D000DF91CF91FF90EF90DF90CF900895E4EEE1
:1024E000F0E06591759150E5569FC001579F900DA2
:1024F0001124865D9B4F60E070E0232B09F071CFC3
:10250000F6CD0F931F93CF93DF930496FC01859133
:102510009591A591B59120E5289F8001299F100DE7
:102520001124C801825D9B4FE801C65DDB4F9B8390
:102530008A839983888360E070E0CB016AD89DA389
:102540008CA3C8018C5A9B4F99A788A79FA38EA3E1
:1025500068E070E080E090E05CD89BAB8AAB0E59FD
:102560001B4F1FAB0EAB1DAB0CAB83E489AF81E0FF
:102570008AAF8BAF8CAF8DAF8EAF8FAFFE01E05CBB
:10258000FF4F98E0908331969FE790833196808348
:10259000319694E0908331968083319695E19083D3
:1025A0003196108211821282138234968083319682
:1025B0001082319693E19083319691E19083319628
:1025C0008083C15BDF4F87E0888381E0DF91CF911B
:1025D0001F910F910895F89421E030E048E561E003
:1025E00070E080E090E07BDF789408958F929F9276
:1025F000AF92BF92DF92EF92FF920F931F93CF9310
:10260000DF93EC01D62EFC01349685909590A59031
:10261000B5908AE068130EC080E5889DF001899D21
:10262000F00D1124E858FB4F8081882319F06DE0EC
:10263000CE01DCDF80E5889D7001899DF00C1124BE
:102640008701065D1B4FD801D2968D919C91D3973F
:102650004FD9D8019896ED91FC919997CF010196A9
:1026600099969C938E939897D082C701845A9B4FDA
:1026700098962D913C9199972817390738F0C70102
:102680008C5A9B4F99969C938E939897FE01B49683
:1026900085919591A0DF81E0DF91CF911F910F91FE
:1026A000FF90EF90DF90BF90AF909F908F90089534
:1026B000A0E0B0E0EDE5F3E14AC18C017B01490106
:1026C0005A0157FD5CC0FC01349685919591A59106
:1026D000B59120E5289FF001299FF00D1124E65DBA
:1026E000FB4F81AD833469F181149104A104B104DD
:1026F00071F484A195A10E94EE0A882E880F990892
:10270000AA08BB0881149104A104B104D1F1E70126
:10271000C12CD12C7601C814D904EA04FB044CF472
:10272000C80171DC89938FEFC81AD80AE80AF80A41
:10273000F2CFD501C401B7FE27C080E090E0DC01F4
:1027400023C0C80160DC8E3FF1F0E7018993C12C02
:10275000D12C7601C394C814D904EA04FB0414F004
:102760008C2D12C08A30E1F38D30D1F3C8014BDCDF
:1027700089939FEFC91AD90AE90AF90AECCF8FEFBA
:1027800003C080E001C08EEFCDB7DEB7ECE0FBC048
:10279000A0E0B0E0EDECF3E1DEC08C0169017A016C
:1027A00057FD11C0232B242B252B11F481E00CC0E5
:1027B000EB016991C8011ADF81E0C81AD108E1086C
:1027C000F108B9F7F3CF8FEFCDB7DEB7E8E0DFC0A0
:1027D00084B18C6284B92A9A08952A9890E028E0FE
:1027E000891304C067FF02C02B9A01C02B982D9A51
:1027F0002D98660F2150A1F728E0891304C047FFE8
:1028000002C02B9A01C02B982D9A2D98440F21506D
:10281000A1F79F5F933019F72A9A0895CF93C0E0EC
:1028200040E069E08C2FD9DF4FE06AE08C2FD5DFE4
:1028300047E06BE08C2FD1DF41E06CE08C2FCDDFE7
:1028400040E06FE08C2FC9DFCF5FC33049F7CF91F5
:10285000089520E030E02817390749F040EA5FE0AA
:10286000000041505109E1F72F5F3F4FF4CF089529
:102870000F931F93CF93DF93D62F28E0829FC00141
:1028800011248C01015C1E4FC0E0F80141918F01C1
:10289000CF5F6C2F8D2FA1DFC830B9F7DF91CF91BB
:1028A0001F910F910895CF93C82F64E61CD060E06C
:1028B000DFDF2AE08C2F622F16D0C92F14D0892F8A
:1028C00061E0D6DF62E08C2FD3DFCF91089580DF07
:1028D000A5DFC0E08C2FE7DF88EE93E0BADFCF5FA3
:1028E000C436C0F3F6CF991B79E004C0991F961740
:1028F00008F0961B881F7A95C9F780950895052ED4
:1029000097FB16F400940FD057FD05D051D007FC6B
:1029100002D046F408C050954095309521953F4F20
:102920004F4F5F4F089590958095709561957F4FBB
:102930008F4F9F4F0895EE0FFF1F0590F491E02DEC
:1029400009942F923F924F925F926F927F928F9253
:102950009F92AF92BF92CF92DF92EF92FF920F932E
:102960001F93CF93DF93CDB7DEB7CA1BDB0B0FB638
:10297000F894DEBF0FBECDBF09942A8839884888F5
:102980005F846E847D848C849B84AA84B984C8848B
:10299000DF80EE80FD800C811B81AA81B981CE0F82
:1029A000D11D0FB6F894DEBF0FBECDBFED01089567
:1029B000A1E21A2EAA1BBB1BFD010DC0AA1FBB1F43
:1029C000EE1FFF1FA217B307E407F50720F0A21BB5
:1029D000B30BE40BF50B661F771F881F991F1A9422
:1029E00069F760957095809590959B01AC01BD014C
:1029F000CF010895FC0105900020E9F7809590959E
:102A00008E0F9F1F0895FB01DC014150504048F09C
:102A100005900D920020C9F701C01D924150504011
:102A2000E0F70895DC0101C06D9341505040E0F79C
:102A30000895AEE0B0E0EEE1F5E191CF8C01FA014E
:102A400086E08C831A83098377FF02C060E070E818
:102A5000CB0101979E838D83A901BF01CE01019611
:102A600011D04D815E8157FD0AC02F8138854217F4
:102A700053070CF49A01F801E20FF31F10822E960F
:102A8000E4E089CFABE0B0E0E7E4F5E15ACF6C01D8
:102A90007B018A01FC0117821682838181FFBFC1FD
:102AA000CE0101963C01F6019381F70193FD8591DA
:102AB00093FF81917F01882309F4ADC1853239F4F8
:102AC00093FD859193FF81917F01853221F4B601B9
:102AD00090E0C0D1E8CF912C212C312CFFE1F315EF
:102AE000D8F08B3279F038F4803279F08332A1F467
:102AF000232D20611DC08D3261F0803369F4232DB8
:102B0000216016C0832D8260382EE32DE4603E2EB6
:102B10002AC0F32DF8601DC037FC2DC020ED280F12
:102B20002A3040F08E32B9F436FC75C1232D206472
:102B3000322E19C036FE06C08AE0989E200D112460
:102B4000922E11C0EAE02E9E200D1124222EF32D8C
:102B5000F0623F2E08C08C3621F4832D8068382E19
:102B600002C0883641F4F70193FD859193FF81916E
:102B70007F018111B3CF982F9F7D9554933028F416
:102B80000C5F1F4F9FE399830DC0833631F083376D
:102B900071F0833509F055C020C0F8018081898328
:102BA0000E5F1F4F88248394912C530112C028017B
:102BB000F2E04F0E511CF801A080B18036FE03C038
:102BC000692D70E002C06FEF7FEFC50138D14C0175
:102BD0008201F32DFF773F2E15C0280122E0420E1F
:102BE000511CF801A080B18036FE03C0692D70E051
:102BF00002C06FEF7FEFC50117D14C01F32DF068D4
:102C00003F2E820133FC19C0822D90E08816990670
:102C1000A0F4B60180E290E01DD12A94F5CFF50131
:102C200037FC859137FE81915F01B60190E012D1AA
:102C300021102A9421E0821A91088114910479F7D5
:102C4000E1C0843611F0893639F5F80137FE07C046
:102C500060817181828193810C5F1F4F08C0608108
:102C60007181072E000C880B990B0E5F1F4FF32DFF
:102C7000FF763F2E97FF09C09095809570956195DE
:102C80007F4F8F4F9F4FF0683F2E2AE030E0A30127
:102C90001DD1882E861844C0853731F4232D2F7E10
:102CA000B22E2AE030E025C0932D997FB92E8F36C1
:102CB000C1F018F4883579F0AEC0803719F0883744
:102CC00021F0A9C0E92FE061BE2EB4FE0DC0FB2D9E
:102CD000F460BF2E09C034FE0AC0292F2660B22E30
:102CE00006C028E030E005C020E130E002C020E16D
:102CF00032E0F801B7FE07C0608171818281938163
:102D00000C5F1F4F06C06081718180E090E00E5F14
:102D10001F4FA301DBD0882E8618FB2DFF773F2E97
:102D200036FE0DC0232D2E7FA22E891458F434FEBA
:102D30000BC032FC09C0832D8E7EA82E05C0B82C96
:102D4000A32C03C0B82C01C0B92CA4FE0FC0FE01F7
:102D5000E80DF11D8081803321F49A2D997EA92EF2
:102D600009C0A2FE06C0B394B39404C08A2D86782D
:102D700009F0B394A3FC10C0A0FE06C0B21480F406
:102D8000280C922C9B180DC0B21458F4B60180E2A6
:102D900090E060D0B394F8CFB21418F42B1802C0AE
:102DA000982C212CA4FE0FC0B60180E390E052D0F5
:102DB000A2FE16C0A1FC03C088E790E002C088E52F
:102DC00090E0B6010CC08A2D867851F0A1FE02C0B9
:102DD0008BE201C080E2A7FC8DE2B60190E03AD020
:102DE000891430F4B60180E390E034D09A94F8CF9F
:102DF0008A94F301E80DF11D8081B60190E02AD09C
:102E00008110F6CF222009F44ECEB60180E290E088
:102E100021D02A94F7CFF6018681978102C08FEFE7
:102E20009FEF2B96E2E1A9CDFC0105906150704027
:102E30000110D8F7809590958E0F9F1F0895FC0183
:102E40006150704001900110D8F7809590958E0FD9
:102E50009F1F08950F931F93CF93DF93FB0123814F
:102E600021FD03C08FEF9FEF2CC022FF16C04681CB
:102E70005781248135814217530744F4A081B181E1
:102E80009D012F5F3F4F318320838C9326813781B3
:102E90002F5F3F4F3783268314C08B01EC01FB016A
:102EA0000084F185E02D0995892BE1F6D80116966D
:102EB0008D919C911797019617969C938E931697D8
:102EC000CE01DF91CF911F910F910895FA01AA27AA
:102ED000283051F1203181F1E8946F936E7F6E5F5D
:102EE0007F4F8F4F9F4FAF4FB1E03ED0B4E03CD00B
:102EF000670F781F891F9A1FA11D680F791F8A1FEE
:102F0000911DA11D6A0F711D811D911DA11D20D054
:102F100009F468943F912AE0269F11243019305D0E
:102F20003193DEF6CF010895462F4770405D4193FF
:102F3000B3E00FD0C9F7F6CF462F4F70405D4A334C
:102F400018F0495D31FD4052419302D0A9F7EACF14
:102F5000B4E0A6959795879577956795BA95C9F743
:102F600000976105710508959B01AC010A2E069436
:102F70005795479537952795BA95C9F7620F731FEF
:082F8000841F951FA01D089598
:102F8800C0000400201B5B306D1B5B324A1B5B3B9F
:102F980048000A467265654D454D3A256420286209
:102FA80079746573290A0A006E756C6C70006D611E
:102FB800696E00202025730A002F6465762F003C77
:102FC8004242424242423C183818181818183C3CF1
:102FD80042021C2042423C3C42021C0242423C0843
:102FE8001828487E0808087E40407C0202423C1CA3
:102FF80020407C4242423C7E420204081010103CB1
:1030080042423C4242423C3C42423E02040870007A
:00000001FF
