:1000000052C100006EC100006CC100006AC1000056
:1000100068C1000066C1000064C1000062C1000048
:1000200060C100005EC100005CC100005AC1000058
:1000300058C1000056C1000031C2000052C100008A
:1000400050C100004EC10000BAC100004AC100000A
:1000500048C1000046C1000044C1000042C1000088
:1000600040C100003EC100000C9453010C9471018A
:100070000C9471010C9471010C9471010C94710138
:100080000C9471010C9471010C9471010C94710128
:100090000C9471010C9471010C9471010C94710118
:1000A0000C944E020C9471010C9471010C9471012A
:1000B0000C94DF010C9471010C9471010C9471018A
:1000C0000C9471010C9471010C9471010C947101E8
:1000D000A80FBC0FC60FD20FFD0FDC0FE80FF30FF8
:1000E0000000000000000000434F4E534F4C4500FD
:1000F00000008112920792075813C813900703104B
:10010000F612950F00386F12350100000000000054
:10011000004E554C4C444556000000920792079201
:1001200007920792079007920792079007000090A6
:10013000070002000000000000004E414D455350F2
:1001400041434500BB0D700F900790079007900743
:1001500090079007900700009007006E616D696E30
:100160006974202864657669636573293A0D0A000D
:100170004552524F522047455453544B2025730A41
:10018000006E616D6573706163653A2064657669C0
:100190006365206E616D6520257320746F6F206C20
:1001A0006F6E670D0A006E616D6573706163653A0D
:1001B0002063616E6E6F74206D6F756E74202564A0
:1001C0000D0A000A0A416C6C20757365722070720A
:1001D0006F636573736573206861766520636F6D07
:1001E000706C657465642E0A0A000A57656C636F4B
:1001F0006D6520746F2058696E75210A0A0D0958C3
:10020000696E75204F5320436F7079726967687407
:100210002028632920323031322C20323031350A07
:100220000D09446F75676C617320452E20436F6D17
:10023000657220616E64204352432050726573736F
:100240002C20496E632E0A0A0D0958696E75204FDD
:100250005320666F72204156522061746D6567614C
:10026000333238702076302E312028632920323006
:1002700032300A0D0952616661656C2049676E6112
:1002800063696F205A7572697461203C726166619E
:100290004066692E756E636F6D612E6564752E61A3
:1002A000723E0A0A0D0011241FBECFEFD8E0DEBF58
:1002B000CDBF11E0A0E0B1E0E0EEFFE202C00590AA
:1002C0000D92AE34B107D9F724E0AEE4B1E001C03D
:1002D0001D92A833B207E1F70C947D060E947514B5
:1002E0001DC38ECEFF93EF93FC0100820FB6F894EE
:1002F00004A21182228233824482558266827782EE
:1003000080869186A286B386C486D586E686F786E1
:10031000008B118B228B338B448B558B668B778BA9
:10032000808F918FA28FB38FC48FD58F0F90068E41
:100330000F90078E0DB600A20EB601A2FB0100A021
:100340000DBE01A00EBE078C0F92068C0F92D58DAC
:10035000C48DB38DA28D918D808D778966895589E5
:1003600044893389228911890089F784E684D584F8
:10037000C484B384A284918480847780668055800D
:10038000448033802280118004A00FBE0080EF9152
:10039000FF910895E0910001F0910101158287E637
:1003A000848386E0828388E981830895E091000157
:1003B000F0910101908195FFFDCF868308951F92F2
:1003C0000F920FB60F9211242F933F934F935F9389
:1003D0006F937F938F939F93AF93BF93EF93FF930D
:1003E0004091C6004093540120E030E061E070E0AD
:1003F00080E090E00E946F12FF91EF91BF91AF916A
:100400009F918F917F916F915F914F913F912F912C
:100410000F900FBE0F901F901895A4E0B0E0E3E19D
:10042000F2E00C94BC1419821A821B821C8219827D
:100430001A821B821C8209811A812B813C8106173A
:1004400017072807390770F4000009811A812B81EA
:100450003C810F5F1F4F2F4F3F4F09831A832B8320
:100460003C83E9CF2496E4E00C94D81480E284B96C
:100470002D9A60E47DE083E090E0CFDF2D9860E48A
:100480007DE083E090E0C9CF10927D0110927E0163
:1004900010927F011092800181E008951F920F92C7
:1004A0000FB60F9211242F933F934F935F936F9347
:1004B0007F938F939F93AF93BF93EF93FF9380911D
:1004C000870190918801A0918901B0918A010196DC
:1004D000A11DB11D8093870190938801A09389018C
:1004E000B0938A01883E9340A105B105D8F0809170
:1004F0008B0190918C01A0918D01B0918E0101969C
:10050000A11DB11D80938B0190938C01A0938D014F
:10051000B0938E0110928701109288011092890188
:1005200010928A01809181019091820126E0289F9A
:10053000F001299FF00D1124E75DFC4F828193812A
:100540008430910584F4289FF001299FF00D112437
:10055000E75DFC4F80819181019791838083892B96
:1005600011F40E94C10C8091830190918401A091AB
:100570008501B09186010197A109B10949F08093E5
:10058000830190938401A0938501B09386010DC0EF
:1005900081E090E0A0E0B0E080938301909384013B
:1005A000A0938501B093860113D7FF91EF91BF917E
:1005B000AF919F918F917F916F915F914F913F91FB
:1005C0002F910F900FBE0F901F901895F3D5909319
:1005D00082018093810181E090E0A0E0B0E080930F
:1005E000830190938401A0938501B09386011092BA
:1005F0008B0110928C0110928D0110928E0110923D
:100600008701109288011092890110928A0185B5A4
:10061000836085BD84B5826084BD89EF87BDEEE6C9
:10062000F0E08081826080830895CF92DF92EF9224
:10063000FF92CF93DF936B017C016AD4D82F83E0C4
:10064000C816D104E104F10420F08D2F64D4CFEF5B
:1006500011C029E22C9DC0012D9D900D11248052C6
:100660009F4FFC0176960590F491E02D0995C82FD7
:100670008D2F51D48C2FDF91CF91FF90EF90DF9091
:10068000CF900895A6E0B0E0E8E4F3E00C94AE1457
:100690002B8D29838C8CED8CFE8C09A13AA13E8395
:1006A00037D4982E40E4E416F1041CF470E4E72EED
:1006B000F12C83E0E80EF11C9CEFE92227010F2CBE
:1006C000000C66087708C301B20169D21C010196CB
:1006D00079F480E791E00E94F10C892D1CD4FFEFA2
:1006E000FA832FEF2B833FEF3C834FEF4D8309C1FC
:1006F00030914E0120914F01809150019091510114
:10070000A12CB12C1BE5632F722F24E030E040E0D8
:1007100050E00E948C146B017C016A83DB82EC82C6
:10072000FD82169FF001179FF00D1124ED56FE4F2C
:1007300080819181B701A6014F5F5F4F6F4F7F4F5F
:10074000892B79F440934E0150934F0160935001EF
:10075000709351018FEFC816D806E806F806A1F489
:10076000B8CF342F252FCB01EFEFAE1ABE0AF4E03D
:10077000AF16B10441F640934E0150934F01609380
:10078000500190935101A5CF2F8D38A11216130659
:100790000CF09FCF8091FF0290910003A091010384
:1007A000B09102030196A11DB11D8093FF029093A9
:1007B0000003A0930103B093020385E090E09183CE
:1007C00080833383228331AE20AE42AE53AE64AE1B
:1007D00075AEDF01AB5BBF4F1C92A02FBE818F01B6
:1007E00080E090E02D91F801E80FF91F26AF222359
:1007F00021F0019687309105A9F72BE52C9DC001CA
:100800002D9D900D1124FC01ED56FE4F5F01EA5B1A
:10081000FF4F8FEF9FEF91838083B8D1F501E85BA5
:10082000FF4F608371838283938338961082319661
:1008300011821082329611821082329611821082B9
:100840008AEAF10180838BA19CA1F50193A782A77D
:1008500020E030E0F801E20FF31F14822F5F3F4FDA
:1008600026323105B9F72BE52C9DF0012D9DF00DB9
:100870001124ED56FE4F298124AB85AA26A387A219
:1008800020E820A7DE01959620E030E02817390700
:1008900064F44D915D91F901EE0FFF1FE00FF11F20
:1008A00055A744A72F5F3F4FF1CFFC017696EE0F7F
:1008B000FF1F4BE54C9D90014D9D300D1124E20F23
:1008C000F31FED56FE4F11821082F901ED56FE4FD7
:1008D000848F958F21543E4F228F338F86E79CE083
:1008E000D10111978C9311979C93119739813C9367
:1008F00011978C9245E0241A310824A235A2892D43
:100900000AD36A817B818C819D812696E2E10C94D9
:10091000CA1461E070E080E090E0089537D104C32C
:10092000A0E0B0E0E6E9F4E00C94B414EC016A0154
:100930007B01EED2C114D104E104F10409F447C0F3
:100940002091250330912603C217D30708F43FC036
:1009500020912703309128032C173D07C0F197E021
:10096000C90ED11CE11CF11C98EFC922A601DD0CB7
:10097000660B770BE0911F03F0912003AFE1B3E02A
:10098000309741F0EC17FD0740F5DF010190F08151
:10099000E02DF6CF93E0AF31B907D1F11296CD90AB
:1009A000DD90ED90FC9015978D010B2E000C220B25
:1009B000330B0C0D1D1D2E1D3F1D6E010D2E000C49
:1009C000EE08FF08C016D106E206F30618F4A3D21B
:1009D0008FEF82C0309741F41EC093E0AF31B9076A
:1009E000E9F600E010E098016E010D2E000CEE0813
:1009F000FF08C40ED51EE61EF71E4F010F2E000C79
:100A0000AA08BB088C149D04AE04BF0420F4DFCFF9
:100A100000E010E09801C0902103D0902203E09004
:100A20002303F0902403C40ED51EE61EF71EC092C9
:100A30002103D0922203E0922303F09224036E015B
:100A40000D2E000CEE08FF08C016D106E206F306D4
:100A500091F412960D911D912D913C911597400F97
:100A6000511F621F731F12964D935D936D937C937C
:100A70001597ED0108C0F983E8834A835B836C8393
:100A80007D83CD93DC934A815B816C817D818E0176
:100A90000D2E000C220B330B040F151F261F371FC2
:100AA0006F010F2E000CEE08FF080C151D052E051A
:100AB0003F0581F40281138124813581400F511F4C
:100AC000621F731F4A835B836C837D832081318126
:100AD0003983288320D281E0CDB7DEB7ECE00C94D7
:100AE000D01426E0AC01249FC001259F900D112455
:100AF000FC01E75DFC4F42815381443051051CF5F8
:100B0000BA01052E000C880B990B249FF001259F3C
:100B1000F00D1124E75DFC4FA281B3814481558122
:100B2000249FF001259FF00D1124E75DFC4FB38356
:100B3000A2832A9FF0012B9FF00D1124E75DFC4F4B
:100B40005583448308956FEF7FEFCB01089546E00E
:100B5000469FF001479FF00D1124E75DFC4FA281F5
:100B6000B38124813581429FF001439FF00D112410
:100B7000E75DFC4FB383A2834A9FF0014B9FF00DCA
:100B80001124E75DFC4F35832483089560918F0124
:100B90007091900180919101909192010895A0E04F
:100BA000B0E0E5EDF5E00C94B8146B017C01B0D138
:100BB000C114D104E104F10449F197E0C90ED11C3C
:100BC000E11CF11C98EFC9220D2C000CEE08FF0867
:100BD000E0911F03F0912003A0E0B0E0C0E0D0E07E
:100BE0002FE133E0309781F0428153816481758138
:100BF0004C155D056E057F0510F0D901EF019F01D1
:100C00000190F081E02DEECF209721F484D18FEF79
:100C10009FEF41C00A811B812C813D81C016D10606
:100C2000E206F30629F4288139812D933C9311C003
:100C30000C191D092E093F090A831B832C833D8350
:100C4000AE01DD0F660B770B040F151F261F371F34
:100C5000E801409121035091220360912303709198
:100C600024034C195D096E097F09409321035093B9
:100C7000220360932303709324034DD1D701C6014F
:100C80000497A109B109AE01DD0F660B770B840F44
:100C9000951FA61FB71FCDB7DEB7E8E00C94D4149C
:100CA000CF92DF92EF92FF92CF93DF936B017C01A3
:100CB0002FD1D82F83E0C816D104E104F10420F02D
:100CC0008D2F29D1CFEF11C029E22C9DC0012D9D80
:100CD000900D112480529F4FFC0172960590F49163
:100CE000E02D0995C82F8D2F16D18C2FDF91CF9134
:100CF000FF90EF90DF90CF900895C7D284E091E00D
:100D00009F938F93F1D18AEE91E06BD61CD2109213
:100D1000FF0210920003109201031092020310923E
:100D20008B0310928C0310928D0310928E03E3E9D3
:100D3000F1E00F900F901182108216AE11AE10AE3E
:100D400013821282E55AFF4F82E0EF3FF80799F7CE
:100D5000C3E0D3E00FE113E0188219821A821B82EC
:100D60001C8228D29E838D8327960C171D07A1F71E
:100D70008BDB20D290938A038093890360E070E03C
:100D8000CB018EDF61E070E080E090E089DF62E01F
:100D900070E080E090E084DF19DCE0911F03F091C7
:100DA000200380E090E0DC01309761F042815381C4
:100DB00064817581840F951FA61FB71F0190F08174
:100DC000E02DF2CFBF93AF939F938F9382E191E099
:100DD0009F938F9389D11F921F921F921F9288E237
:100DE00091E09F938F931F928AE08F931F9280E4EC
:100DF0008F931F921F9246DC2BE5269FF001279FC1
:100E0000F00D1124ED56FE4F81E090E09183808338
:100E100084D01F921F921F921F928EE291E09F93A7
:100E20008F931F9284E18F9381E08F9388EB8F9350
:100E300085E794E19F938F9325DC9BD38DB79EB775
:100E40004E960FB6F8949EBF0FBE8DBFFFCF1F9377
:100E5000CF93DF93FA0134973B9708F054C0643086
:100E600071058105910508F04EC03BE5369FF00104
:100E7000379FF00D1124ED56FE4F0190F081E02DCB
:100E8000EF2B09F440C036E0349FF001359FF00DA0
:100E90001124E75DFC4F42815381022E000C330B7D
:100EA000C6E016E0C49FF001C59FF00D1124E75D78
:100EB000FC4FA081B181A217B30718F04281538182
:100EC000F0CFC481D581169FD001179FB00D11249A
:100ED000A75DBC4F13965C934E9312971596DC93C7
:100EE000CE9314972D933C931C9FD0011D9FB00D62
:100EF0001124A75DBC4F13967C936E931297758354
:100F0000648381E001C08FEFDF91CF911F9108953D
:100F10008FB7F89408958FBF089578940895FFCF00
:100F20008FEF089581E00895AF92BF92CF92DF9244
:100F3000EF92FF921F93CF93DF936B017C01E8DF69
:100F4000182F84E0C816D104E104F10488F48BE57D
:100F50008C9DF0018D9DF00D1124ED56FE4F80818A
:100F60009181892B29F0C114D104E104F10421F409
:100F7000812FD1DF8FEF9DC08091FF029091000300
:100F8000A0910103B09102030197A109B1098093D7
:100F9000FF0290930003A0930103B0930203029712
:100FA000A105B1050CF419D58BE58C9D50018D9DE3
:100FB000B00C1124F501E552FE4F608171818281F0
:100FC0009381A701960171D3C0E0D0E0FE01EA0D44
:100FD000FB1DEC51FE4F60817181072E000C880BC8
:100FE000990B23DB2296C630D10581F78BE58C9DCA
:100FF000E0018D9DD00D1124CD56DE4F4AAD5BAD85
:101000006CAD7DAD495F5F4F6F4F7F4F487F052EC1
:10101000000C660B770B88AD99AD092E000CAA0B5E
:10102000BB0B0496A11DB11D841B950BA60BB70B22
:1010300077DC888199818430910581F030F48130AA
:10104000910549F0029729F127C08630910551F0AA
:10105000079721F021C019821882BAD1C701B601C1
:10106000F7D31AC0CA5BDF4F8881998127E0289F98
:10107000F001299FF00D1124ED5FFC4F81819281D9
:10108000A381B4810196A11DB11D81839283A383A5
:10109000B483C701B6015BDD8BE58C9DF0018D9DAE
:1010A000F00D1124ED56FE4F11821082812F33DF97
:1010B00081E0DF91CF911F91FF90EF90DF90CF9073
:1010C000BF90AF900895CF93DF93C82F21DFD82F23
:1010D000CA3011F48DE06AD98C2F68D98D2F1BDFAF
:1010E00081E0DF91CF910895A1E5B0E0EAE7F8E073
:1010F0000C94BA148E01065A1F4FF801E190F1903A
:101100008F0121E530E040E050E060E070E0CE018A
:1011100001960E941F159801A70160E570E0CE01BD
:1011200001960E9445158E010F5F1F4FF8018191B6
:101130008F01882311F0C7DFF9CF81E0CF5ADF4F4D
:10114000E6E00C94D6140F931F93CF93DF9388E3BC
:1011500094E0A0E8BB270196A11DB11DEC0190937E
:101160002603809325032FEF38E030932803209344
:101170002703EFE1F3E09183808319821882092E1F
:10118000000CAA0BBB0B4FEF58E060E070E08A0147
:101190009B01081B190B2A0B3B0B0A831B832C8317
:1011A0003D830283138324833583DF91CF911F9185
:1011B0000F910895209102013091030120313105F2
:1011C00044F5C90102969093030180930201A9019D
:1011D0004F5F5F4F66E0629FF001639FF00D112447
:1011E000E75DFC4F538342838FEF9FEF95838483AA
:1011F00091838083649FF001659FF00D1124E75D6A
:10120000FC4F938382833583248311821082C9012A
:1012100008958FEF9FEF08958F929F92AF92BF92A4
:10122000EF92FF920F931F93CF93DF934B015C01DB
:101230008A0179016DDED82F83E088169104A1041C
:10124000B10420F08D2F67DECFEF13C029E2289D77
:10125000C001299D900D112480529F4FFC0174966E
:101260000590F491E02DA701B8010995C82F8D2FA5
:1012700052DE8C2FDF91CF911F910F91FF90EF9055
:10128000BF90AF909F908F900895F894EFD8EED8CC
:1012900081D83FCBCF93DF939A01245031092B3073
:1012A0003105E8F56430710581059105C0F52BE540
:1012B000269FF001279FF00D1124ED56FE4F20814F
:1012C0003181232B61F14F5F5F4F26E0249FF001B6
:1012D000259FF00D1124E75DFC4FC481D581269F29
:1012E000D001279FB00D1124A75DBC4F13965C93CE
:1012F0004E9312971596DC93CE9314972C9FD001A2
:101300002D9FB00D1124A75DBC4F13967C936E9357
:10131000129775836483462F372F282F04C04FEF11
:101320003FEF2FEF9FEF642F732F822FDF91CF912D
:101330000895CF939C01245031092B303105F8F4E6
:10134000C6E0C89FF001C99FF00D1124E75DFC4F76
:10135000228133812430310594F4C3DBC69FF00130
:10136000C79FF00D1124E75DFC4F2FEF3FEF358352
:10137000248333832283462F372F282F04C04FEF37
:101380003FEF2FEF9FEF642F732F822FCF910895A0
:101390006430710581059105C8F42BE5269FF001A5
:1013A000279FF00D1124ED56FE4F20813181232B14
:1013B00069F022E030E0318320834091890350912D
:1013C0008A03228144DD04D081E008958FEF0895DF
:1013D000CF92DF92EF92FF9280918B0390918C03DA
:1013E000A0918D03B0918E03181619061A061B06DC
:1013F00024F481E080938F036BC0C0908F01D09064
:101400009001E0909101F09092018BE58C9DF001AC
:101410008D9DF00D1124ED56FE4F80819181019735
:1014200029F5228133814091890350918A0386E016
:10143000849FD001859FB00D1124A75DBC4F1296EB
:101440006D917C911397869FD001879FB00D1124D9
:10145000A75DBC4F8D919C9182179307C8F182E0E4
:1014600090E091838083C701B601F1DC809189030C
:1014700090918A035EDF60938F0170939001809357
:101480009101909392012BE5269FD001279FB00DEB
:101490001124FD01ED56FE4F41E050E051834083A1
:1014A00041E050E060E070E040938301509384019C
:1014B0006093850170938601BD0169567E4F2C9D16
:1014C000C0012D9D900D112489569E4F0E947201DE
:1014D000FF90EF90DF90CF90089561307105810506
:1014E000910531F06230710581059105F1F03FC041
:1014F00080918B0390918C03A0918D03B0918E030A
:10150000AC01BD014F5F5F4F6F4F7F4F40938B0327
:1015100050938C0360938D0370938E03892B8A2BD9
:101520008B2B19F510928F0320C080918B03909123
:101530008C03A0918D03B0918E03181619061A061C
:101540001B06ACF40197A109B10980938B0390931A
:101550008C03A0938D03B0938E03892B8A2B8B2B46
:1015600021F480918F03811133DF81E008958FEFA3
:101570000895CF92DF92EF92FF921F93CF93DF9364
:101580006B017C01C5DC182F84E0C816D104E1048E
:10159000F10470F48BE58C9DF0018D9DF00D11240C
:1015A000ED56FE4F80819181009711F0059729F04B
:1015B000812FB1DC8FEF9FEF09C0D281C381C701BA
:1015C000B601E6DE812FA7DC8D2F9C2FDF91CF9116
:1015D0001F91FF90EF90DF90CF900895CF93DF930E
:1015E000EC0196DCC430D10558F497E09C9FF001E3
:1015F0009D9FF00D1124ED5FFC4F9081911103C070
:101600008ADC8FEF03C0C18186DC8C2FDF91CF9104
:101610000895CF92DF92EF92FF92CF93DF936B0109
:101620007C0176DCF7FE04C076DCCFEFDFEF35C05F
:10163000C0915201D091530140E050E097E09E01EB
:101640002F5F3F4F2430310514F020E030E09C9FA5
:10165000F0019D9FF00D1124ED5FFC4F6081611141
:1016600010C0309353012093520191E09083CF3FFB
:101670009FEFD907C9F2C182D282E382F4824BDCA8
:101680000CC04F5F5F4F4430510511F0E901D7CFD7
:101690003093530120935201C7CFCE01DF91CF91F8
:1016A000FF90EF90DF90CF9008958F929F92AF922E
:1016B000BF92CF92DF92EF92FF92CF934B015C01EA
:1016C00069017A0125DCC82F84E088169104A10401
:1016D000B10490F48BE5889DF001899DF00D1124F3
:1016E000ED56FE4F80819181009731F0DF01A05BC4
:1016F000BF4F2C91222321F08C2F0DDC8FEF16C0D1
:10170000E45BFF4FC082D182E282F38221E02C931E
:101710008330910529F0079731F4C501B40198D0C1
:10172000C501B40135DE8C2FF6DB81E0CF91FF904F
:10173000EF90DF90CF90BF90AF909F908F900895E3
:101740000F931F93CF938C01E3DBC82F0430110557
:1017500058F487E0809FF001819FF00D1124ED5F28
:10176000FC4F8081811104C08C2FD5DB8FEF17C017
:1017700081819281A381B481AC01BD014F5F5F4F34
:101780006F4F7F4F4183528363837483B7FF04C0DD
:1017900085819681CEDDFCDD8C2FBDDB81E0CF9194
:1017A0001F910F910895A0E0B0E0E9EDFBE00C94EB
:1017B000B7148C016A017B01ABDBB82E0430110534
:1017C00068F4F7FC0BC087E0809FE001819FD00D9B
:1017D0001124CD5FDC4F8881811104C08B2D9BDBF0
:1017E0008FEF31C061E070E080E090E076DE8E0146
:1017F0000F5F1F4F2596C114D104E104F104D9F005
:10180000F80180819181A281B381AC01BD014F5F5C
:101810005F4F6F4F7F4F4083518362837383B7FF66
:1018200004C08881998185DDB3DDF1E0CF1AD1084C
:10183000E108F108E0CF62E070E080E090E04DDE8A
:101840008B2D69DB81E0CDB7DEB7E9E00C94D314D2
:10185000CF92DF92EF92FF92CF936B017C0158DB26
:10186000C82F84E0C816D104E104F10488F48BE5A4
:101870008C9DF0018D9DF00D1124ED56FE4F808161
:101880009181009729F08430910531F0079721F07C
:101890008C2F41DB8FEF24C026E02C9DD0012D9DA5
:1018A000B00D1124A75DBC4F12968D919C9113979A
:1018B000843091057CF4289FF001299FF00D1124BC
:1018C000E75DFC4F208131818D919C91820F931FA8
:1018D00091838083C701B6013AD98C2F1CDB81E04C
:1018E000CF91FF90EF90DF90CF9008954FD91CCB10
:1018F0001F93CF93DF93EC010BDB182FC430D1057E
:1019000058F487E08C9FF0018D9FF00D1124ED5F5E
:10191000FC4F8081811104C0812FFDDA8FEF2DC033
:1019200081819281A381B4810197A109B109818349
:101930009283A383B483B7FF1DC060918F01709120
:10194000900180919101909192012BE5269FD00109
:10195000279FB00D1124AD56BE4F26E030E0119602
:101960003C932E93AA5BBF4FCD93DC934581568168
:1019700091DC2EDD812FCFDA81E0DF91CF911F91B5
:101980000895CF9361E070E080E090E0A6DDC6E0CE
:101990008091810190918201C89FF001C99FF00D53
:1019A0001124E75DFC4F228133812430310574F42A
:1019B000C29FF001C39FF00D1124E75DFC4F208111
:1019C0003181232B19F4B5DCE3DCE2CF62E070E077
:1019D00080E090E082DDCF91089583EC91E001D02A
:1019E0009ECA0F931F93CF93DF938C010E9407151C
:1019F000E801080F191FC017D10731F0FE01219629
:101A000085910E94D601F7CFDF91CF911F910F9161
:101A100008950F931F9300E010E098010417150735
:101A20002607370764F4DC01ED91CD010F5F1F4FEE
:101A30002F4F3F4FE111F2CFB801C90104C06FEF42
:101A40007FEF8FEF9FEF1F910F910895A6E0B0E019
:101A5000EBE2FDE083C7182F9C831B0169017A012B
:101A600057DA082F40E150E060E070E0812F9C8160
:101A7000D0DF4B015C0141E050E060E070E0C1016B
:101A8000C8DF2B013C012FEF82169206A206B20698
:101A900049F16F3F7F4F8F4F9F4F21F153E0C516A4
:101AA000D104E104F104F0F480919003909191034A
:101AB000A0919203B091930384309105A105B105E3
:101AC0008CF419831C811A8325E1289FA001299F8A
:101AD000500D11245E834D8320E030E040E050E063
:101AE000BA0104C0802F17DA8FEF42C0481559059C
:101AF0006A057B059CF4E981FA811191FA83E983F7
:101B0000ED81FE81E20FF31FEC56FC4F10834F5F17
:101B10005F4F6F4F7F4F2F5F3F4FE8CF1414150477
:101B2000160417045CF4F101208135E1389FF001BF
:101B3000399FF00D1124EC56FC4F208B25E1289F96
:101B4000F001299FF00D1124EC56FC4FC18AD28A76
:101B5000E38AF48A0196A11DB11D809390039093AE
:101B60009103A0939203B0939303802FD4D981E083
:101B70002696E2E10FC7A0E2B0E0E0ECFDE0F0C69F
:101B800086E0E9E3F1E0DE015B9601900D928A9533
:101B9000E1F7109290031092910310929203109229
:101BA00093038BE591E01DDF80EEE82E80E0F82EB8
:101BB00088E090E09C01205E3040690193E3892E2B
:101BC00091E0992EDE015B968E010F5F1F4F412C35
:101BD000512C320158018D91F8018193882339F0FD
:101BE0003FEF431A530A630A730A8F01F4CFB60119
:101BF0006E0D7F1D60527F4F4AE050E0CE0141964E
:101C00000FD7FE017196BFEF4B1A5B0A6B0A7B0A76
:101C100020E1421651046104710464F481919FEB48
:101C2000980F9A3108F4805ED8018D938D0181114F
:101C3000EACF09C030E1431651046104710419F080
:101C400081E891E016C0BF92AF929F928F924CDADA
:101C5000F701259135914591559167E271E0C501F4
:101C6000F5DE0F900F900F900F908F3F19F486EADA
:101C700091E0B7DEF9E2EF0EF11C2BE5E21621E070
:101C8000F20609F09FCF2FEF3FEFA90167E271E065
:101C900089E391E0DBDE81E0A096E0E17DC64F9232
:101CA0005F926F927F928F929F92AF92BF92DF92DC
:101CB000EF92FF920F931F93CF93DF9300D000D04A
:101CC0001F92CDB7DEB7E0909003F09091030091A2
:101CD000920310919303E982FA820B831C8324E917
:101CE00033E0812C912C5401E980FA800B811C8116
:101CF0008E149F04A006B106ACF47C01F901412CBE
:101D0000512C3201D70141914423C1F00FEFE01A69
:101D1000F00A5C9145130AC01FEF411A510A610A8B
:101D2000710AF0CF6FEF7FEFCB0165C00FEF801A24
:101D3000900AA00AB00A2B5E3F4FD6CF7D83D62EE5
:101D400040E150E060E070E064DE698385E1889DF9
:101D50008001899D100D11240C551C4F40E150E06D
:101D600060E070E0C80155DEA9812A2FAA0F330B6D
:101D7000440B550B24193509460957092B013C0121
:101D8000B1E04B1A510861087108420E531E641EDF
:101D9000751EE1E14E165104610471041CF62B011D
:101DA0003C01D801ED2DFD8181E0481A5108610800
:101DB000710814141504160417041CF48D918193F2
:101DC000F3CF12161306140615064CF4D7018D91A5
:101DD0007D0181932150310941095109F2CF85E1FB
:101DE000889DF001899DF00D1124EC56FC4F61890E
:101DF0007289838994890F900F900F900F900F90A4
:101E0000DF91CF911F910F91FF90EF90DF90BF90E6
:101E1000AF909F908F907F906F905F904F900895BC
:101E2000CF92DF92EF92FF92FB01C12CD12C760171
:101E3000C216D306E406F50664F46191DC016D93E5
:101E4000CD01662341F0BFEFCB1ADB0AEB0AFB0A98
:101E5000EFCF8FEF01C081E0FF90EF90DF90CF9048
:101E60000895A0E1B0E0E6E3FFE07EC58B01490103
:101E70005A0120E130E040E050E0BC01CE01019683
:101E8000CFDF8F3FF1F0C12CD12C76010DC020E1C6
:101E900030E040E050E0B801CE010196C1DF8FEFA5
:101EA000C81AD80AE80AF80A809190039091910321
:101EB000A0919203B0919303C816D906EA06FB06D7
:101EC00014F08FEF0AC0B801CE010196E8DE681564
:101ED00079058A059B05D9F2862F6096ECE060C5EE
:101EE000A0E1B0E0E5E7FFE047C5FC01CB018A01D6
:101EF0002591359145915591BE016F5F7F4FB1DFBF
:101F0000682F880F770B880B990B6F3F2FEF7207A5
:101F10008207920731F09801AE014F5F5F4F7CD985
:101F200001C08FEF6096E4E043C50F931F93CF93FA
:101F3000DF930496FC0185919591A591B591FA01E5
:101F40003397E830F10508F058C0E859FF4F00C555
:101F500020E5289F8001299F100D1124E801C85118
:101F6000DC4F8CA19DA1C4DCEA81FB8110818CA196
:101F70009DA1E6DB812F42C020E5289FF001299F2B
:101F8000F00D1124E851FC4F82E509C020E5289F9F
:101F9000F001299FF00D1124E851FC4F83E481AF3B
:101FA00081E02CC020E5289FF001299FF00D11242D
:101FB000E851FC4F8BE4F3CF20E5289FF001299FE7
:101FC000F00D1124E851FC4F84A195A107DB16C048
:101FD00020E5289FF001299FF00D1124E851FC4FC6
:101FE00081E082AF0BC020E5289FF001299FF00D12
:101FF0001124E851FC4F12AED3CF8FEFDF91CF9178
:102000001F910F910895A0E0B0E0E8E0F0E1B0C4C6
:102010000496FC01C590D590E590F59080E58C9DE7
:10202000E0018D9DD00D11248E0108511C4FD80167
:1020300094968D919C9195975BDCD801ED91FC91E4
:1020400011979F012F5F3F4F11963C932E938081F4
:10205000AE01445F5B4F2417350720F0C451DC4FBD
:10206000CD93DC9390E59C9DF0019D9DF00D112496
:10207000E851FC4F91AD933461F4DF01AE5BBF4F8B
:102080009C91992331F0ED5BFF4F9081891301C042
:102090008EEFCDB7DEB7E8E087C4CF93C82F8A3084
:1020A00011F08D3059F4FB0185AD882339F08DE0B6
:1020B00090E00E94D6018AE090E015C080EE8C0F7F
:1020C0008F3570F0FB0184AD882351F08EE590E0F0
:1020D0000E94D60180E48C0F082E000C990B03C0DF
:1020E0008C2FCC0F990B0E94D601CF910895EF92BF
:1020F000FF921F93CF93DF93EC01142F8CA19DA12E
:102100006DDA082E000C990BAA0BBB0BB7FF03C0AE
:1021100080E090E0DC0129AD2235C1F48097A10573
:10212000B1050CF058C1EA81FB81CF0101969B8378
:102130008A8310832A813B81CE0184962817390730
:1021400008F423C180979B838A831FC11D3019F433
:102150003EAD31111AE0FE01E55BFF4F10822B34DA
:10216000F1F48097A105B1050CF0E6C0EA81FB818E
:10217000CF0101969B838A8310832A813B81CE0104
:1021800084962817390718F080979B838A838AAD35
:10219000882309F4FAC0BE01812F7FDFF6C0FE015B
:1021A000EB5BFF4F80819E012A5B3F4F7901181343
:1021B00020C0319780818823E1F08A819B81F901D9
:1021C00020813181821B930B9E012C5F3F4F821730
:1021D000930708F480969B838A83F701108211820B
:1021E000128213828DE090E00E94D6018AE090E096
:1021F000A9C0FE01E05CFF4F8081181721F03196E5
:102200008081181352C08FAD882309F44EC0F701A6
:1022100080819181A281B381181619061A061B06C6
:102220000CF0D9C00197A109B10980839183A283E1
:10223000B3838A819B819C0121503109AE014C5F9F
:102240005F4F2417350718F03B832A8303C04F964E
:102250009B838A838AAD882309F4BDC0EA81FB8110
:10226000808180528F3590F08CAD882379F088E0A2
:1022700090E00E94D6018BAD882341F080E290E08F
:102280000E94D60188E090E00E94D60188E090E0AC
:102290000E94D6018BAD882309F49DC080E290E0B6
:1022A0000E94D60188E090E04DC01A3011F01D3038
:1022B00049F58AAD882319F0BE01812FEEDEEA814F
:1022C000FB81CF0101969B838A8310832A813B8106
:1022D000CE0184962817390718F080979B838A834C
:1022E000F70140815181628173814F5F5F4F6F4F72
:1022F0007F4F8CA19DA157DAF701108211821282C3
:10230000138269C08CA19DA169D9082E000C990B7C
:10231000AA0BBB0BB7FF03C080E090E0DC01F70124
:102320004081518162817381840F951FA61FB71F61
:102330004F97A105B1054CF0C15BDF4F8881082E96
:10234000000C990B0E94D60146C0FE01ED5BFF4FC9
:1023500090818AAD19131DC0319790819923C9F0DE
:10236000882319F0BE01812F98DEF70180819181C9
:10237000A281B381892B8A2B8B2B69F5EA81FB81A2
:10238000CF0101969B838A8310838CA19DA1D8D90C
:1023900022C0882319F0BE01812F7FDEF7018081E2
:1023A0009181A281B3810196A11DB11D808391838A
:1023B000A283B383EA81FB81CF0101969B838A8349
:1023C00010832A813B81CE0184962817390718F0A3
:1023D00080979B838A83DF91CF911F91FF90EF902D
:1023E0000895CF92DF92EF92FF92CF93DF93FC019B
:1023F000E55BFF4F208121116BC0EC012CA93DA9A9
:102400008EA99FA92817390761F02CA93DA98EA98B
:102410009FA92817390759F4C12CD12C7601C394F0
:102420001FC08AA99BA9DAD888307CF351C0EEA1DD
:10243000FFA1CF0101969FA38EA38081082E000CDF
:10244000990B0E94D6012CA93DA9CE01C996281747
:10245000390718F001979DAB8CABC12CD12C7601BC
:102460008AA99BA9BBD828E030E0281B310987FD49
:102470003395CA94CD28CE28CF2801F5121613061D
:10248000ECF4EEA1FFA1CF0101969FA38EA3808162
:10249000082E000C990B0E94D6012EA13FA1CE015F
:1024A000C2962817390718F008979FA38EA341E01A
:1024B00050E060E070E08AA99BA975D92CA93DA9DC
:1024C0008EA99FA92817390719F48AA99BA986D82C
:1024D000DF91CF91FF90EF90DF90CF900895E4EEE1
:1024E000F0E06591759150E5569FC001579F900DA2
:1024F000112488519C4F60E070E0232B09F071CFCC
:10250000F6CD0F931F93CF93DF930496FC01859133
:102510009591A591B59120E5289F8001299F100DE7
:102520001124C80184519C4FE801C851DC4F9B83A2
:102530008A839983888360E070E0CB016AD89DA389
:102540008CA3C8018E5E9B4F99A788A79FA38EA3DB
:1025500068E070E080E090E05CD89BAB8AAB005E06
:102560001B4F1FAB0EAB1DAB0CAB83E489AF81E0FF
:102570008AAF8BAF8CAF8DAF8EAF8FAFFE01E05CBB
:10258000FF4F98E0908331969FE790833196808348
:10259000319694E0908331968083319695E19083D3
:1025A0003196108211821282138234968083319682
:1025B0001082319693E19083319691E19083319628
:1025C0008083C15BDF4F87E0888381E0DF91CF911B
:1025D0001F910F910895F89421E030E048E561E003
:1025E00070E080E090E07BDF789408958F929F9276
:1025F000AF92BF92DF92EF92FF920F931F93CF9310
:10260000DF93EC01D62EFC01349685909590A59031
:10261000B5908AE068130EC080E5889DF001899D21
:10262000F00D1124EA5CFB4F8081882319F06DE0E6
:10263000CE01DCDF80E5889D7001899DF00C1124BE
:10264000870108511C4FD801D2968D919C91D39748
:102650004FD9D8019896ED91FC919997CF010196A9
:1026600099969C938E939897D082C701865E9B4FD4
:1026700098962D913C9199972817390738F0C70102
:102680008E5E9B4F99969C938E939897FE01B4967D
:1026900085919591A0DF81E0DF91CF911F910F91FE
:1026A000FF90EF90DF90BF90AF909F908F90089534
:1026B000A0E0B0E0EDE5F3E157C18C017B014901F9
:1026C0005A0157FD5CC0FC01349685919591A59106
:1026D000B59120E5289FF001299FF00D1124E851C4
:1026E000FC4F81AD833469F181149104A104B104DC
:1026F00071F484A195A10E94EE0A882E880F990892
:10270000AA08BB0881149104A104B104D1F1E70126
:10271000C12CD12C7601C814D904EA04FB044CF472
:10272000C80171DC89938FEFC81AD80AE80AF80A41
:10273000F2CFD501C401B7FE27C080E090E0DC01F4
:1027400023C0C80160DC8E3FF1F0E7018993C12C02
:10275000D12C7601C394C814D904EA04FB0414F004
:102760008C2D12C08A30E1F38D30D1F3C8014BDCDF
:1027700089939FEFC91AD90AE90AF90AECCF8FEFBA
:1027800003C080E001C08EEFCDB7DEB7ECE008C13A
:10279000A0E0B0E0EDECF3E1EBC08C0169017A015F
:1027A00057FD11C0232B242B252B11F481E00CC0E5
:1027B000EB016991C8011ADF81E0C81AD108E1086C
:1027C000F108B9F7F3CF8FEFCDB7DEB7E8E0ECC093
:1027D00020E030E02817390749F040EA5FE00000C8
:1027E00041505109E1F72F5F3F4FF4CF0895CF9348
:1027F000C82F8BB18F709C2F907F892B8BB95F98DE
:102800005E9A81E090E0E4DF5E988BB1282F2F7014
:1028100030E1C39FC0011124822B8BB95E9A81E005
:1028200090E0D6DF5E98CF9108958AB18C6F8AB917
:1028300082E390E0CDDF82E0DADF88E2D8DF8CE06F
:10284000D6DF86E0D4DF81E0D2DF85E090E0C0CF44
:10285000CF93C82F8BB18F709C2F907F892B8BB912
:102860005F9A5E9A81E090E0B3DF5E988BB1282F8B
:102870002F7030E1C39FC0011124822B8BB95E9A67
:1028800081E090E0A5DF5E98CF910895CF93DF932C
:10289000EC018991882311F0DBDFFBCFDF91CF9131
:1028A0000895A0E1B0E0E6E5F4E165C0182F062F39
:1028B000F42E80E89CDF1F92FF921F920F931F92CD
:1028C0001F938FE391E09F938F938E010F5F1F4FB4
:1028D0001F930F93BBD0C801D9DF0FB6F894DEBFAA
:1028E0000FBECDBF6096E5E062C09FDF10E0D0E094
:1028F000C0E0412F6D2F8C2FD4DF88EE93E068DF8E
:102900001F5F1C3311F4DF5F10E0DC3311F4CF5F85
:10291000D0E0C83171F7ECCF052E97FB16F4009488
:102920000FD057FD05D051D007FC02D046F408C0A7
:1029300050954095309521953F4F4F4F5F4F0895EB
:1029400090958095709561957F4F8F4F9F4F08951B
:10295000EE0FFF1F0590F491E02D09942F923F9206
:102960004F925F926F927F928F929F92AF92BF929F
:10297000CF92DF92EF92FF920F931F93CF93DF934B
:10298000CDB7DEB7CA1BDB0B0FB6F894DEBF0FBEA8
:10299000CDBF09942A88398848885F846E847D84F5
:1029A0008C849B84AA84B984C884DF80EE80FD80F7
:1029B0000C811B81AA81B981CE0FD11D0FB6F8946D
:1029C000DEBF0FBECDBFED010895A1E21A2EAA1BF6
:1029D000BB1BFD010DC0AA1FBB1FEE1FFF1FA217CF
:1029E000B307E407F50720F0A21BB30BE40BF50BCC
:1029F000661F771F881F991F1A9469F76095709555
:102A0000809590959B01AC01BD01CF010895FC011B
:102A100005900020E9F7809590958E0F9F1F0895EF
:102A2000FB01DC014150504048F005900D92002020
:102A3000C9F701C01D9241505040E0F70895DC01F4
:102A400001C06D9341505040E0F70895AEE0B0E012
:102A5000EBE2F5E191CF0D891E8986E08C831A8324
:102A600009838FEF9FE79E838D83AE01475E5F4FA3
:102A70006F89788DCE01019631D0EF81F885E00F16
:102A8000F11F10822E96E4E093CFAEE0B0E0EAE4CE
:102A9000F5E172CF8C01FA0186E08C831A830983F9
:102AA00077FF02C060E070E8CB0101979E838D83C1
:102AB000A901BF01CE01019611D04D815E8157FD64
:102AC0000AC02F813885421753070CF49A01F80188
:102AD000E20FF31F10822E96E4E06ACFABE0B0E085
:102AE000E3E7F5E13BCF6C017B018A01FC01178232
:102AF0001682838181FFBFC1CE0101963C01F601A0
:102B00009381F70193FD859193FF81917F01882344
:102B100009F4ADC1853239F493FD859193FF81911C
:102B20007F01853221F4B60190E0C0D1E8CF912C2D
:102B3000212C312CFFE1F315D8F08B3279F038F4E9
:102B4000803279F08332A1F4232D20611DC08D32B3
:102B500061F0803369F4232D216016C0832D8260DB
:102B6000382EE32DE4603E2E2AC0F32DF8601DC000
:102B700037FC2DC020ED280F2A3040F08E32B9F4FA
:102B800036FC75C1232D2064322E19C036FE06C0D6
:102B90008AE0989E200D1124922E11C0EAE02E9E0C
:102BA000200D1124222EF32DF0623F2E08C08C360A
:102BB00021F4832D8068382E02C0883641F4F70155
:102BC00093FD859193FF81917F018111B3CF982F60
:102BD0009F7D9554933028F40C5F1F4F9FE399839A
:102BE0000DC0833631F0833771F0833509F055C05D
:102BF00020C0F801808189830E5F1F4F8824839451
:102C0000912C530112C02801F2E04F0E511CF80123
:102C1000A080B18036FE03C0692D70E002C06FEF66
:102C20007FEFC50138D14C018201F32DFF773F2E94
:102C300015C0280122E0420E511CF801A080B1808D
:102C400036FE03C0692D70E002C06FEF7FEFC50153
:102C500017D14C01F32DF0683F2E820133FC19C0CF
:102C6000822D90E088169906A0F4B60180E290E0EB
:102C70001DD12A94F5CFF50137FC859137FE81915E
:102C80005F01B60190E012D121102A9421E0821A4E
:102C900091088114910479F7E1C0843611F08936E6
:102CA00039F5F80137FE07C0608171818281938117
:102CB0000C5F1F4F08C060817181072E000C880BCC
:102CC000990B0E5F1F4FF32DFF763F2E97FF09C024
:102CD00090958095709561957F4F8F4F9F4FF068CD
:102CE0003F2E2AE030E0A3011DD1882E861844C073
:102CF000853731F4232D2F7EB22E2AE030E025C017
:102D0000932D997FB92E8F36C1F018F4883579F05C
:102D1000AEC0803719F0883721F0A9C0E92FE061F3
:102D2000BE2EB4FE0DC0FB2DF460BF2E09C034FED4
:102D30000AC0292F2660B22E06C028E030E005C068
:102D400020E130E002C020E132E0F801B7FE07C028
:102D500060817181828193810C5F1F4F06C0608109
:102D6000718180E090E00E5F1F4FA301DBD0882EC1
:102D70008618FB2DFF773F2E36FE0DC0232D2E7FAC
:102D8000A22E891458F434FE0BC032FC09C0832DE6
:102D90008E7EA82E05C0B82CA32C03C0B82C01C071
:102DA000B92CA4FE0FC0FE01E80DF11D8081803317
:102DB00021F49A2D997EA92E09C0A2FE06C0B394D3
:102DC000B39404C08A2D867809F0B394A3FC10C094
:102DD000A0FE06C0B21480F4280C922C9B180DC0E3
:102DE000B21458F4B60180E290E060D0B394F8CF0A
:102DF000B21418F42B1802C0982C212CA4FE0FC07A
:102E0000B60180E390E052D0A2FE16C0A1FC03C040
:102E100088E790E002C088E590E0B6010CC08A2DFA
:102E2000867851F0A1FE02C08BE201C080E2A7FCCF
:102E30008DE2B60190E03AD0891430F4B60180E317
:102E400090E034D09A94F8CF8A94F301E80DF11D04
:102E50008081B60190E02AD08110F6CF222009F4BB
:102E60004ECEB60180E290E021D02A94F7CFF60151
:102E70008681978102C08FEF9FEF2B96E2E18ACD8A
:102E8000FC010590615070400110D8F78095909535
:102E90008E0F9F1F0895FC0161507040019001103A
:102EA000D8F7809590958E0F9F1F08950F931F93CD
:102EB000CF93DF93FB01238121FD03C08FEF9FEFB1
:102EC0002CC022FF16C046815781248135814217CC
:102ED000530744F4A081B1819D012F5F3F4F31839F
:102EE00020838C93268137812F5F3F4F3783268342
:102EF00014C08B01EC01FB010084F185E02D0995E4
:102F0000892BE1F6D80116968D919C911797019621
:102F100017969C938E931697CE01DF91CF911F91B8
:102F20000F910895FA01AA27283051F1203181F13B
:102F3000E8946F936E7F6E5F7F4F8F4F9F4FAF4FC1
:102F4000B1E03ED0B4E03CD0670F781F891F9A1FD4
:102F5000A11D680F791F8A1F911DA11D6A0F711D88
:102F6000811D911DA11D20D009F468943F912AE094
:102F7000269F11243019305D3193DEF6CF0108957C
:102F8000462F4770405D4193B3E00FD0C9F7F6CFAD
:102F9000462F4F70405D4A3318F0495D31FD405275
:102FA000419302D0A9F7EACFB4E0A695979587950B
:102FB00077956795BA95C9F70097610571050895EA
:102FC0009B01AC010A2E0694579547953795279596
:102FD000BA95C9F7620F731F841F951FA01D08952E
:102FE000C0000400201B5B306D1B5B324A1B5B3B47
:102FF00048000A467265654D454D3A2564202862B1
:1030000079746573290A0A006E756C6C70006D61C5
:10301000696E00202025730A002F6465762F002535
:0E3020003032643A253032643A253032640092
:00000001FF
